{
  "contractName": "Admins",
  "abi": [
    {
      "inputs": [
        {
          "name": "_admins",
          "type": "address[]"
        }
      ],
      "payable": false,
      "stateMutability": "nonpayable",
      "type": "constructor"
    },
    {
      "constant": false,
      "inputs": [
        {
          "name": "_admin",
          "type": "address"
        },
        {
          "name": "status",
          "type": "bool"
        }
      ],
      "name": "updateAdmin",
      "outputs": [],
      "payable": false,
      "stateMutability": "nonpayable",
      "type": "function"
    },
    {
      "constant": true,
      "inputs": [
        {
          "name": "_admin",
          "type": "address"
        }
      ],
      "name": "isAdmin",
      "outputs": [
        {
          "name": "",
          "type": "bool"
        }
      ],
      "payable": false,
      "stateMutability": "view",
      "type": "function"
    }
  ],
  "bytecode": "0x608060405234801561001057600080fd5b5060405161035638038061035683398101806040528101908080518201929190505050600080825111151561004457600080fd5b600090505b815181101561012057600073ffffffffffffffffffffffffffffffffffffffff16828281518110151561007857fe5b9060200190602002015173ffffffffffffffffffffffffffffffffffffffff16141515156100a557600080fd5b600160008084848151811015156100b857fe5b9060200190602002015173ffffffffffffffffffffffffffffffffffffffff1673ffffffffffffffffffffffffffffffffffffffff16815260200190815260200160002060006101000a81548160ff0219169083151502179055508080600101915050610049565b5050610225806101316000396000f30060806040526004361061004c576000357c0100000000000000000000000000000000000000000000000000000000900463ffffffff16806324d7806c14610051578063670a6fd9146100ac575b600080fd5b34801561005d57600080fd5b50610092600480360381019080803573ffffffffffffffffffffffffffffffffffffffff1690602001909291905050506100fb565b604051808215151515815260200191505060405180910390f35b3480156100b857600080fd5b506100f9600480360381019080803573ffffffffffffffffffffffffffffffffffffffff169060200190929190803515159060200190929190505050610150565b005b60008060008373ffffffffffffffffffffffffffffffffffffffff1673ffffffffffffffffffffffffffffffffffffffff16815260200190815260200160002060009054906101000a900460ff169050919050565b610159336100fb565b151561016457600080fd5b3373ffffffffffffffffffffffffffffffffffffffff168273ffffffffffffffffffffffffffffffffffffffff161415151561019f57600080fd5b806000808473ffffffffffffffffffffffffffffffffffffffff1673ffffffffffffffffffffffffffffffffffffffff16815260200190815260200160002060006101000a81548160ff02191690831515021790555050505600a165627a7a72305820bccea86f73c87dcb4ccfd916535b85094ea504bf97ea08b20811742b9728685b0029",
  "source": "pragma solidity ^0.4.24;\n\ncontract Admins {\n\n    mapping(address => bool) admins;\n\n    constructor(address[] _admins) {\n        require(_admins.length > 0);\n\n        for (uint i = 0; i < _admins.length; i++) {\n            require(_admins[i] != address(0));\n            admins[_admins[i]] = true;\n        }\n    }\n\n\n    function updateAdmin(address _admin, bool status) external {\n        // check that sender is admin\n        require(isAdmin(msg.sender));\n\n        // don't allow to edit itself account\n        // to avoid situation when all admins are removed\n        require(_admin != msg.sender);\n\n        admins[_admin] = status;\n    }\n\n\n    function isAdmin(address _admin) public view returns(bool) {\n        return admins[_admin];\n    }\n\n}\n",
  "sourcePath": "/Users/bykrab/work/poaTokensTransfer/contracts/production/Admins.sol",
  "compiler": {
    "name": "solc",
    "version": "0.4.24+commit.e67f0147.Emscripten.clang"
  },
  "schemaVersion": "2.0.0",
  "updatedAt": "2018-06-18T18:29:13.493Z"
}