{
  "contractName": "SortedLinkedList",
  "abi": [
    {
      "constant": false,
      "inputs": [
        {
          "name": "self",
          "type": "SortedLinkedList.SLL storage"
        },
        {
          "name": "_from",
          "type": "uint256"
        },
        {
          "name": "_to",
          "type": "uint256"
        }
      ],
      "name": "sew",
      "outputs": [],
      "payable": false,
      "stateMutability": "nonpayable",
      "type": "function"
    }
  ],
  "bytecode": "0x610208610030600b82828239805160001a6073146000811461002057610022565bfe5b5030600052607381538281f3007300000000000000000000000000000000000000003014608060405260043610610058576000357c0100000000000000000000000000000000000000000000000000000000900463ffffffff168063692137511461005d575b600080fd5b81801561006957600080fd5b5061009c60048036038101908080359060200190929190803590602001909291908035906020019092919050505061009e565b005b6100a883836100e6565b15156100b357600080fd5b6100bd83826100e6565b15156100c857600080fd5b80821015156100d657600080fd5b6100e183838361017b565b505050565b60006100f06101ba565b60008314156101025760019150610174565b83600101548314156101175760019150610174565b836000016000848152602001908152602001600020606060405190810160405290816000820154815260200160018201548152602001600282015481525050905060008160000151148015610170575060008160200151145b1591505b5092915050565b80836000016000848152602001908152602001600020600001819055508183600001600083815260200190815260200160002060010181905550505050565b60606040519081016040528060008152602001600081526020016000815250905600a165627a7a723058208349d60c1c1afd331e4a9684e933c2047a5dd588abe2187f1bd7662ad453af380029",
  "source": "pragma solidity ^0.4.0;\n\nlibrary SortedLinkedList {\n\n    struct Node {\n        uint next;\n        uint prev;\n        uint value;\n    }\n\n    struct SLL{\n        mapping (uint => Node) sll;\n        uint HEAD;\n    }\n\n    function getNode(SLL storage self, uint _key) internal view returns(Node){\n        return self.sll[_key];\n    }\n\n    function isNodeExist(SLL storage self, uint _key) internal view returns(bool) {\n        // root node always exists\n        if(_key == 0) { return true;}\n        if(_key == self.HEAD) { return true; }\n\n        Node memory node = self.sll[_key];\n        return !(node.next == 0 && node.prev == 0);\n    }\n\n    function stepForward(SLL storage self, Node _currentNode) internal view returns(Node) {\n        return getNode(self, _currentNode.next);\n    }\n\n    function stepBack(SLL storage self, Node _currentNode) internal view returns(Node) {\n        return getNode(self, _currentNode.prev);\n    }\n\n    function insert(SLL storage self, uint _prevNodeKey, uint _key, uint _value) internal returns (uint) {\n        require(isNodeExist(self, _prevNodeKey));\n\n\n        if( _prevNodeKey == self.HEAD) {\n            return push(self, _key, _value);\n        }\n\n        uint nextKey = self.sll[_prevNodeKey].next;\n\n        // check that order is kept\n        require(_prevNodeKey > _key && nextKey < _key);\n\n\n        self.sll[_prevNodeKey].next = _key;\n        self.sll[nextKey].prev = _key;\n\n        self.sll[_key] = Node({\n            next: nextKey,\n            prev: _prevNodeKey,\n            value: _value\n        });\n\n        return nextKey;\n    }\n\n    // attach node to the HEAD\n    function push(SLL storage self, uint _key, uint _value) private returns (uint) {\n        self.sll[self.HEAD].next = _key;\n\n        self.sll[_key] = Node({\n            next: 0,\n            prev: self.HEAD,\n            value: _value\n        });\n\n        self.HEAD = _key;\n\n        return 0;\n    }\n\n    function updateNodeValue(SLL storage self, uint _key, uint _newValue) internal {\n        require(isNodeExist(self, _key));\n\n        self.sll[_key].value = _newValue;\n    }\n\n    // connect \"from\" and \"to\" nodes and remove all nodes in between\n    function cut(SLL storage self, uint _from, uint _to) internal {\n        require(isNodeExist(self, _from));\n        require(isNodeExist(self, _to));\n        require(_from < _to);\n\n\n        Node memory node = getNode(self, _from);\n        uint nextNodeKey = node.next;\n//        uint currentNodeKey = nextNodeKey;\n\n        while(nextNodeKey != _to) {\n            node = stepForward(self, node);\n//            currentNodeKey = nextNodeKey;\n//            nextNodeKey = node.next;\n//            delete self.sll[currentNodeKey];\n\n            delete self.sll[nextNodeKey];\n            nextNodeKey = node.next;\n        }\n\n        _sew(self, _from, _to);\n    }\n\n    // remove node\n    function remove(SLL storage self, uint _key) internal {\n        require(isNodeExist(self, _key));\n        Node memory node = getNode(self, _key);\n\n        if (self.HEAD == _key) {\n            uint prev = self.sll[_key].prev;\n            self.sll[prev].next = 0;\n            self.HEAD = prev;\n        } else {\n            _sew(self, self.sll[_key].prev, self.sll[_key].next);\n        }\n\n        delete self.sll[_key];\n    }\n\n\n\n    function _sew(SLL storage self, uint _from, uint _to) private {\n        self.sll[_from].next = _to;\n        self.sll[_to].prev = _from;\n    }\n\n\n    // connect nodes\n    // _from.next = _to and _to.prev = _from;\n    function sew(SLL storage self, uint _from, uint _to) {\n        require(isNodeExist(self, _from));\n        require(isNodeExist(self, _to));\n        require(_from < _to);\n\n        _sew(self, _from, _to);\n    }\n\n\n\n    function isEmpty(SLL storage self) internal view returns(bool) {\n        return(self.HEAD == 0);\n    }\n\n}\n",
  "sourcePath": "/Users/bykrab/work/poaTokensTransfer/contracts/libraries/SortedLinkedList.sol",
  "compiler": {
    "name": "solc",
    "version": "0.4.24+commit.e67f0147.Emscripten.clang"
  },
  "schemaVersion": "2.0.0",
  "updatedAt": "2018-06-18T18:29:13.496Z"
}