{
  "contractName": "TokensTransfer",
  "abi": [
    {
      "constant": true,
      "inputs": [
        {
          "name": "_admin",
          "type": "address"
        }
      ],
      "name": "isAdmin",
      "outputs": [
        {
          "name": "",
          "type": "bool"
        }
      ],
      "payable": false,
      "stateMutability": "view",
      "type": "function"
    },
    {
      "constant": false,
      "inputs": [
        {
          "name": "_admin",
          "type": "address"
        },
        {
          "name": "status",
          "type": "bool"
        }
      ],
      "name": "updateAdmin",
      "outputs": [],
      "payable": false,
      "stateMutability": "nonpayable",
      "type": "function"
    },
    {
      "inputs": [
        {
          "name": "_admins",
          "type": "address[]"
        }
      ],
      "payable": false,
      "stateMutability": "nonpayable",
      "type": "constructor"
    },
    {
      "constant": true,
      "inputs": [
        {
          "name": "_userAddress",
          "type": "address"
        },
        {
          "name": "_tokenAddress",
          "type": "address"
        }
      ],
      "name": "getTotalBalance",
      "outputs": [
        {
          "name": "",
          "type": "uint256"
        }
      ],
      "payable": false,
      "stateMutability": "view",
      "type": "function"
    },
    {
      "constant": true,
      "inputs": [
        {
          "name": "_owner",
          "type": "address"
        },
        {
          "name": "_token",
          "type": "address"
        },
        {
          "name": "_timestamp",
          "type": "uint256"
        }
      ],
      "name": "getBalanceAt",
      "outputs": [
        {
          "name": "",
          "type": "uint256"
        }
      ],
      "payable": false,
      "stateMutability": "view",
      "type": "function"
    },
    {
      "constant": true,
      "inputs": [
        {
          "name": "_owner",
          "type": "address"
        },
        {
          "name": "_token",
          "type": "address"
        }
      ],
      "name": "getBalance",
      "outputs": [
        {
          "name": "",
          "type": "uint256"
        }
      ],
      "payable": false,
      "stateMutability": "view",
      "type": "function"
    },
    {
      "constant": false,
      "inputs": [
        {
          "name": "_token",
          "type": "address"
        },
        {
          "name": "_amount",
          "type": "uint256"
        }
      ],
      "name": "release",
      "outputs": [],
      "payable": false,
      "stateMutability": "nonpayable",
      "type": "function"
    },
    {
      "constant": false,
      "inputs": [
        {
          "name": "_recipient",
          "type": "address"
        },
        {
          "name": "_token",
          "type": "address"
        },
        {
          "name": "_amount",
          "type": "uint256"
        }
      ],
      "name": "releaseForce",
      "outputs": [],
      "payable": false,
      "stateMutability": "nonpayable",
      "type": "function"
    },
    {
      "constant": false,
      "inputs": [
        {
          "name": "_to",
          "type": "address"
        },
        {
          "name": "_tokenAddress",
          "type": "address"
        },
        {
          "name": "_releaseTimestamp",
          "type": "uint256"
        },
        {
          "name": "_previousReleaseTimestamp",
          "type": "uint256"
        },
        {
          "name": "_amount",
          "type": "uint256"
        }
      ],
      "name": "acceptTokens",
      "outputs": [],
      "payable": false,
      "stateMutability": "nonpayable",
      "type": "function"
    },
    {
      "constant": true,
      "inputs": [
        {
          "name": "_owner",
          "type": "address"
        },
        {
          "name": "_token",
          "type": "address"
        },
        {
          "name": "_timestamp",
          "type": "uint256"
        }
      ],
      "name": "isExistingTimestamp",
      "outputs": [
        {
          "name": "",
          "type": "bool"
        }
      ],
      "payable": false,
      "stateMutability": "view",
      "type": "function"
    }
  ],
  "bytecode": "0x608060405234801561001057600080fd5b5060405161150c38038061150c8339810180604052810190808051820192919050505080600080825111151561004557600080fd5b600090505b815181101561012157600073ffffffffffffffffffffffffffffffffffffffff16828281518110151561007957fe5b9060200190602002015173ffffffffffffffffffffffffffffffffffffffff16141515156100a657600080fd5b600160008084848151811015156100b957fe5b9060200190602002015173ffffffffffffffffffffffffffffffffffffffff1673ffffffffffffffffffffffffffffffffffffffff16815260200190815260200160002060006101000a81548160ff021916908315150217905550808060010191505061004a565b5050506113d9806101336000396000f300608060405260043610610099576000357c0100000000000000000000000000000000000000000000000000000000900463ffffffff1680630357371d1461009e57806315b73d4c146100eb578063224b5c341461016c57806323ed21cd146101ed57806324d7806c1461025a57806351bd551f146102b5578063670a6fd91461032c578063cbfa5b9a1461037b578063d4fac45d14610400575b600080fd5b3480156100aa57600080fd5b506100e9600480360381019080803573ffffffffffffffffffffffffffffffffffffffff16906020019092919080359060200190929190505050610477565b005b3480156100f757600080fd5b5061016a600480360381019080803573ffffffffffffffffffffffffffffffffffffffff169060200190929190803573ffffffffffffffffffffffffffffffffffffffff169060200190929190803590602001909291908035906020019092919080359060200190929190505050610486565b005b34801561017857600080fd5b506101d7600480360381019080803573ffffffffffffffffffffffffffffffffffffffff169060200190929190803573ffffffffffffffffffffffffffffffffffffffff169060200190929190803590602001909291905050506106ba565b6040518082815260200191505060405180910390f35b3480156101f957600080fd5b50610258600480360381019080803573ffffffffffffffffffffffffffffffffffffffff169060200190929190803573ffffffffffffffffffffffffffffffffffffffff16906020019092919080359060200190929190505050610834565b005b34801561026657600080fd5b5061029b600480360381019080803573ffffffffffffffffffffffffffffffffffffffff169060200190929190505050610858565b604051808215151515815260200191505060405180910390f35b3480156102c157600080fd5b50610316600480360381019080803573ffffffffffffffffffffffffffffffffffffffff169060200190929190803573ffffffffffffffffffffffffffffffffffffffff1690602001909291905050506108ad565b6040518082815260200191505060405180910390f35b34801561033857600080fd5b50610379600480360381019080803573ffffffffffffffffffffffffffffffffffffffff169060200190929190803515159060200190929190505050610a16565b005b34801561038757600080fd5b506103e6600480360381019080803573ffffffffffffffffffffffffffffffffffffffff169060200190929190803573ffffffffffffffffffffffffffffffffffffffff16906020019092919080359060200190929190505050610abf565b604051808215151515815260200191505060405180910390f35b34801561040c57600080fd5b50610461600480360381019080803573ffffffffffffffffffffffffffffffffffffffff169060200190929190803573ffffffffffffffffffffffffffffffffffffffff169060200190929190505050610b58565b6040518082815260200191505060405180910390f35b610482338383610b6d565b5050565b600073ffffffffffffffffffffffffffffffffffffffff168573ffffffffffffffffffffffffffffffffffffffff16141515156104c257600080fd5b600073ffffffffffffffffffffffffffffffffffffffff168473ffffffffffffffffffffffffffffffffffffffff16141515156104fe57600080fd5b60008111151561050d57600080fd5b61059f828483600160008a73ffffffffffffffffffffffffffffffffffffffff1673ffffffffffffffffffffffffffffffffffffffff16815260200190815260200160002060008973ffffffffffffffffffffffffffffffffffffffff1673ffffffffffffffffffffffffffffffffffffffff168152602001908152602001600020610f94909392919063ffffffff16565b508373ffffffffffffffffffffffffffffffffffffffff166323b872dd3330846040518463ffffffff167c0100000000000000000000000000000000000000000000000000000000028152600401808473ffffffffffffffffffffffffffffffffffffffff1673ffffffffffffffffffffffffffffffffffffffff1681526020018373ffffffffffffffffffffffffffffffffffffffff1673ffffffffffffffffffffffffffffffffffffffff1681526020018281526020019350505050602060405180830381600087803b15801561067757600080fd5b505af115801561068b573d6000803e3d6000fd5b505050506040513d60208110156106a157600080fd5b8101908080519060200190929190505050505050505050565b60006106c461138b565b60006107556000600160008973ffffffffffffffffffffffffffffffffffffffff1673ffffffffffffffffffffffffffffffffffffffff16815260200190815260200160002060008873ffffffffffffffffffffffffffffffffffffffff1673ffffffffffffffffffffffffffffffffffffffff16815260200190815260200160002061109790919063ffffffff16565b9150600090505b6000826000015114158015610775575083826000015111155b156108285761080882600160008973ffffffffffffffffffffffffffffffffffffffff1673ffffffffffffffffffffffffffffffffffffffff16815260200190815260200160002060008873ffffffffffffffffffffffffffffffffffffffff1673ffffffffffffffffffffffffffffffffffffffff1681526020019081526020016000206110e690919063ffffffff16565b915061082182604001518261110490919063ffffffff16565b905061075c565b80925050509392505050565b61083d33610858565b151561084857600080fd5b610853838383610b6d565b505050565b60008060008373ffffffffffffffffffffffffffffffffffffffff1673ffffffffffffffffffffffffffffffffffffffff16815260200190815260200160002060009054906101000a900460ff169050919050565b60006108b761138b565b60006109486000600160008873ffffffffffffffffffffffffffffffffffffffff1673ffffffffffffffffffffffffffffffffffffffff16815260200190815260200160002060008773ffffffffffffffffffffffffffffffffffffffff1673ffffffffffffffffffffffffffffffffffffffff16815260200190815260200160002061109790919063ffffffff16565b9150600090505b60008260000151141515610a0b576109eb82600160008873ffffffffffffffffffffffffffffffffffffffff1673ffffffffffffffffffffffffffffffffffffffff16815260200190815260200160002060008773ffffffffffffffffffffffffffffffffffffffff1673ffffffffffffffffffffffffffffffffffffffff1681526020019081526020016000206110e690919063ffffffff16565b9150610a0482604001518261110490919063ffffffff16565b905061094f565b809250505092915050565b610a1f33610858565b1515610a2a57600080fd5b3373ffffffffffffffffffffffffffffffffffffffff168273ffffffffffffffffffffffffffffffffffffffff1614151515610a6557600080fd5b806000808473ffffffffffffffffffffffffffffffffffffffff1673ffffffffffffffffffffffffffffffffffffffff16815260200190815260200160002060006101000a81548160ff0219169083151502179055505050565b6000610b4f82600160008773ffffffffffffffffffffffffffffffffffffffff1673ffffffffffffffffffffffffffffffffffffffff16815260200190815260200160002060008673ffffffffffffffffffffffffffffffffffffffff1673ffffffffffffffffffffffffffffffffffffffff16815260200190815260200160002061112090919063ffffffff16565b90509392505050565b6000610b658383426106ba565b905092915050565b610b7561138b565b6000806000610c096000600160008a73ffffffffffffffffffffffffffffffffffffffff1673ffffffffffffffffffffffffffffffffffffffff16815260200190815260200160002060008973ffffffffffffffffffffffffffffffffffffffff1673ffffffffffffffffffffffffffffffffffffffff16815260200190815260200160002061109790919063ffffffff16565b935083600001519250600091505b6000846000015114158015610c2c5750428311155b8015610c385750848211155b15610da557610ccb84600160008a73ffffffffffffffffffffffffffffffffffffffff1673ffffffffffffffffffffffffffffffffffffffff16815260200190815260200160002060008973ffffffffffffffffffffffffffffffffffffffff1673ffffffffffffffffffffffffffffffffffffffff1681526020019081526020016000206110e690919063ffffffff16565b9350610ce484604001518361110490919063ffffffff16565b915084821115610d9857610d0185836111b590919063ffffffff16565b9050610d938382600160008b73ffffffffffffffffffffffffffffffffffffffff1673ffffffffffffffffffffffffffffffffffffffff16815260200190815260200160002060008a73ffffffffffffffffffffffffffffffffffffffff1673ffffffffffffffffffffffffffffffffffffffff1681526020019081526020016000206111ce9092919063ffffffff16565b610da0565b836000015192505b610c17565b84821015610e1b576040517f08c379a00000000000000000000000000000000000000000000000000000000081526004018080602001828103825260148152602001807f496e73756666696369656e742062616c616e636500000000000000000000000081525060200191505060405180910390fd5b610eac600084600160008b73ffffffffffffffffffffffffffffffffffffffff1673ffffffffffffffffffffffffffffffffffffffff16815260200190815260200160002060008a73ffffffffffffffffffffffffffffffffffffffff1673ffffffffffffffffffffffffffffffffffffffff1681526020019081526020016000206112059092919063ffffffff16565b8573ffffffffffffffffffffffffffffffffffffffff1663a9059cbb88876040518363ffffffff167c0100000000000000000000000000000000000000000000000000000000028152600401808373ffffffffffffffffffffffffffffffffffffffff1673ffffffffffffffffffffffffffffffffffffffff16815260200182815260200192505050602060405180830381600087803b158015610f4f57600080fd5b505af1158015610f63573d6000803e3d6000fd5b505050506040513d6020811015610f7957600080fd5b81019080805190602001909291905050505050505050505050565b600080610fa18686611120565b1515610fac57600080fd5b8560010154851415610fca57610fc38685856112be565b915061108e565b8560000160008681526020019081526020016000206000015490508385118015610ff357508381105b1515610ffe57600080fd5b83866000016000878152602001908152602001600020600001819055508386600001600083815260200190815260200160002060010181905550606060405190810160405280828152602001868152602001848152508660000160008681526020019081526020016000206000820151816000015560208201518160010155604082015181600201559050508091505b50949350505050565b61109f61138b565b826000016000838152602001908152602001600020606060405190810160405290816000820154815260200160018201548152602001600282015481525050905092915050565b6110ee61138b565b6110fc838360000151611097565b905092915050565b6000818301905082811015151561111757fe5b80905092915050565b600061112a61138b565b600083141561113c57600191506111ae565b836001015483141561115157600191506111ae565b8360000160008481526020019081526020016000206060604051908101604052908160008201548152602001600182015481526020016002820154815250509050600081600001511480156111aa575060008160200151145b1591505b5092915050565b60008282111515156111c357fe5b818303905092915050565b6111d88383611120565b15156111e357600080fd5b8083600001600084815260200190815260200160002060020181905550505050565b61120d61138b565b60006112198585611120565b151561122457600080fd5b61122e8584611120565b151561123957600080fd5b828410151561124757600080fd5b6112518585611097565b9150816000015190505b82811415156112ac5761126e85836110e6565b91508460000160008281526020019081526020016000206000808201600090556001820160009055600282016000905550508160000151905061125b565b6112b785858561134c565b5050505050565b6000828460000160008660010154815260200190815260200160002060000181905550606060405190810160405280600081526020018560010154815260200183815250846000016000858152602001908152602001600020600082015181600001556020820151816001015560408201518160020155905050828460010181905550600090509392505050565b80836000016000848152602001908152602001600020600001819055508183600001600083815260200190815260200160002060010181905550505050565b60606040519081016040528060008152602001600081526020016000815250905600a165627a7a72305820e934897c441f053eb978d227c965a0f5910ac1ecb4ecb3b0930f2aeffeb7a6340029",
  "source": "pragma solidity ^0.4.24;\n\nimport \"../abstract/IERC20.sol\";\nimport \"../libraries/SortedLinkedList.sol\";\nimport \"../libraries/SafeMath.sol\";\nimport \"./Admins.sol\";\n\ncontract TokensTransfer is Admins {\n    using SortedLinkedList for SortedLinkedList.SLL;\n    using SafeMath for uint;\n\n    //userAddress => tokenAddress => releaseTimestamp => balances;\n    mapping(address => mapping( address => SortedLinkedList.SLL ) ) private bank;\n\n    constructor(address[] _admins) Admins(_admins) {\n    }\n\n    function getTotalBalance(address _userAddress, address _tokenAddress) external view returns(uint) {\n        SortedLinkedList.Node memory node = bank[_userAddress][_tokenAddress].getNode(0);\n        uint balance = 0;\n\n        while(node.next != 0) {\n            node = bank[_userAddress][_tokenAddress].stepForward(node);\n            balance = balance.add(node.value);\n        }\n\n        return balance;\n    }\n\n    function getBalanceAt(address _owner, address _token, uint _timestamp) public view returns(uint) {\n        SortedLinkedList.Node memory node = bank[_owner][_token].getNode(0);\n        uint balance = 0;\n\n        while(node.next != 0 && node.next <= _timestamp) {\n            node = bank[_owner][_token].stepForward(node);\n            balance = balance.add(node.value);\n        }\n\n        return balance;\n    }\n\n    function getBalance(address _owner, address _token) external view returns(uint) {\n        return getBalanceAt(_owner, _token, now);\n    }\n\n    function release(address _token, uint _amount) external {\n        _release(msg.sender, _token, _amount);\n    }\n\n    function releaseForce(address _recipient, address _token, uint _amount) external {\n        require(isAdmin(msg.sender));\n\n        _release(_recipient, _token, _amount);\n    }\n\n    function _release(address _recipient, address _token, uint _amount) internal {\n        SortedLinkedList.Node memory node = bank[_recipient][_token].getNode(0);\n        uint lastNodeKey = node.next;\n        uint balance = 0;\n\n        while(node.next != 0 && lastNodeKey <= now && balance <= _amount) {\n            node = bank[_recipient][_token].stepForward(node);\n            balance = balance.add(node.value);\n\n            if(balance > _amount) {\n                uint diff = balance.sub(_amount);\n                bank[_recipient][_token].updateNodeValue(lastNodeKey, diff);\n            } else {\n                lastNodeKey = node.next;\n            }\n        }\n\n        if (balance < _amount) {\n            revert('Insufficient balance');\n        }\n\n        bank[_recipient][_token].cut(0, lastNodeKey);\n\n        IERC20(_token).transfer(_recipient, _amount);\n    }\n\n    function acceptTokens(address _to, address _tokenAddress, uint _releaseTimestamp, uint _previousReleaseTimestamp, uint _amount) external {\n        require(_to != address(0));\n        require(_tokenAddress != address(0));\n        require(_amount > 0);\n\n        bank[_to][_tokenAddress].insert(_previousReleaseTimestamp, _releaseTimestamp, _amount);\n\n        IERC20(_tokenAddress).transferFrom(msg.sender, address(this), _amount);\n    }\n\n\n    function isExistingTimestamp(address _owner, address _token, uint _timestamp) external view returns(bool) {\n        return bank[_owner][_token].isNodeExist(_timestamp);\n    }\n\n}\n",
  "sourcePath": "/Users/bykrab/work/poaTokensTransfer/contracts/production/TokensTranfer.sol",
  "compiler": {
    "name": "solc",
    "version": "0.4.24+commit.e67f0147.Emscripten.clang"
  },
  "schemaVersion": "2.0.0",
  "updatedAt": "2018-06-18T18:29:13.502Z"
}